{"abi":[{"type":"constructor","inputs":[{"name":"_shuffleVerifier","type":"address","internalType":"address"}],"stateMutability":"nonpayable"},{"type":"function","name":"createTable","inputs":[{"name":"_buyIn","type":"uint256","internalType":"uint256"}],"outputs":[],"stateMutability":"payable"},{"type":"function","name":"getTable","inputs":[{"name":"tableId","type":"uint256","internalType":"uint256"}],"outputs":[{"name":"","type":"tuple","internalType":"struct IPokerTable.Table","components":[{"name":"player1","type":"address","internalType":"address"},{"name":"player2","type":"address","internalType":"address"},{"name":"buyIn","type":"uint256","internalType":"uint256"},{"name":"pot","type":"uint256","internalType":"uint256"},{"name":"state","type":"uint8","internalType":"enum IPokerTable.State"},{"name":"turn","type":"uint8","internalType":"uint8"}]}],"stateMutability":"view"},{"type":"function","name":"joinTable","inputs":[{"name":"tableId","type":"uint256","internalType":"uint256"}],"outputs":[],"stateMutability":"payable"},{"type":"function","name":"shuffleVerifier","inputs":[],"outputs":[{"name":"","type":"address","internalType":"contract IVerifier"}],"stateMutability":"view"},{"type":"function","name":"submitShuffleProof","inputs":[{"name":"tableId","type":"uint256","internalType":"uint256"},{"name":"proof","type":"bytes","internalType":"bytes"},{"name":"publicInputs","type":"bytes32[]","internalType":"bytes32[]"}],"outputs":[],"stateMutability":"nonpayable"},{"type":"function","name":"tableCount","inputs":[],"outputs":[{"name":"","type":"uint256","internalType":"uint256"}],"stateMutability":"view"}],"bytecode":{"object":"0x608060405234801561000f575f5ffd5b506040516110c33803806110c3833981810160405281019061003191906100d5565b8060015f6101000a81548173ffffffffffffffffffffffffffffffffffffffff021916908373ffffffffffffffffffffffffffffffffffffffff16021790555050610100565b5f5ffd5b5f73ffffffffffffffffffffffffffffffffffffffff82169050919050565b5f6100a48261007b565b9050919050565b6100b48161009a565b81146100be575f5ffd5b50565b5f815190506100cf816100ab565b92915050565b5f602082840312156100ea576100e9610077565b5b5f6100f7848285016100c1565b91505092915050565b610fb68061010d5f395ff3fe608060405260043610610054575f3560e01c80630d2d20d914610058578063195e251f146100825780633823bb03146100be5780634155fc5b146100da578063508aea8c146101045780636f5fb74314610120575b5f5ffd5b348015610063575f5ffd5b5061006c610148565b6040516100799190610881565b60405180910390f35b34801561008d575f5ffd5b506100a860048036038101906100a391906108d5565b61016d565b6040516100b59190610a36565b60405180910390f35b6100d860048036038101906100d391906108d5565b6102ac565b005b3480156100e5575f5ffd5b506100ee610423565b6040516100fb9190610a5e565b60405180910390f35b61011e600480360381019061011991906108d5565b610428565b005b34801561012b575f5ffd5b5061014660048036038101906101419190610b2d565b6105f4565b005b60015f9054906101000a900473ffffffffffffffffffffffffffffffffffffffff1681565b610175610796565b60025f8381526020019081526020015f206040518060c00160405290815f82015f9054906101000a900473ffffffffffffffffffffffffffffffffffffffff1673ffffffffffffffffffffffffffffffffffffffff1673ffffffffffffffffffffffffffffffffffffffff168152602001600182015f9054906101000a900473ffffffffffffffffffffffffffffffffffffffff1673ffffffffffffffffffffffffffffffffffffffff1673ffffffffffffffffffffffffffffffffffffffff1681526020016002820154815260200160038201548152602001600482015f9054906101000a900460ff1660068111156102725761027161092f565b5b60068111156102845761028361092f565b5b81526020016004820160019054906101000a900460ff1660ff1660ff16815250509050919050565b5f60025f8381526020019081526020015f2090505f73ffffffffffffffffffffffffffffffffffffffff16816001015f9054906101000a900473ffffffffffffffffffffffffffffffffffffffff1673ffffffffffffffffffffffffffffffffffffffff1614610351576040517f08c379a000000000000000000000000000000000000000000000000000000000815260040161034890610c18565b60405180910390fd5b80600201543414610397576040517f08c379a000000000000000000000000000000000000000000000000000000000815260040161038e90610c80565b60405180910390fd5b33816001015f6101000a81548173ffffffffffffffffffffffffffffffffffffffff021916908373ffffffffffffffffffffffffffffffffffffffff16021790555034816003015f8282546103ec9190610ccb565b925050819055506001816004015f6101000a81548160ff0219169083600681111561041a5761041961092f565b5b02179055505050565b5f5481565b80341461046a576040517f08c379a000000000000000000000000000000000000000000000000000000000815260040161046190610c80565b60405180910390fd5b6040518060c001604052803373ffffffffffffffffffffffffffffffffffffffff1681526020015f73ffffffffffffffffffffffffffffffffffffffff1681526020018281526020018281526020015f60068111156104cc576104cb61092f565b5b81526020015f60ff1681525060025f5f5481526020019081526020015f205f820151815f015f6101000a81548173ffffffffffffffffffffffffffffffffffffffff021916908373ffffffffffffffffffffffffffffffffffffffff1602179055506020820151816001015f6101000a81548173ffffffffffffffffffffffffffffffffffffffff021916908373ffffffffffffffffffffffffffffffffffffffff16021790555060408201518160020155606082015181600301556080820151816004015f6101000a81548160ff021916908360068111156105b2576105b161092f565b5b021790555060a08201518160040160016101000a81548160ff021916908360ff1602179055509050505f5f8154809291906105ec90610cfe565b919050555050565b5f60025f8781526020019081526020015f2090506001600681111561061c5761061b61092f565b5b816004015f9054906101000a900460ff16600681111561063f5761063e61092f565b5b1461067f576040517f08c379a000000000000000000000000000000000000000000000000000000000815260040161067690610d8f565b60405180910390fd5b5f60015f9054906101000a900473ffffffffffffffffffffffffffffffffffffffff1673ffffffffffffffffffffffffffffffffffffffff1663ea50d0e4878787876040518563ffffffff1660e01b81526004016106e09493929190610e7f565b602060405180830381865afa1580156106fb573d5f5f3e3d5ffd5b505050506040513d601f19601f8201168201806040525081019061071f9190610eed565b905080610761576040517f08c379a000000000000000000000000000000000000000000000000000000000815260040161075890610f62565b60405180910390fd5b6002826004015f6101000a81548160ff021916908360068111156107885761078761092f565b5b021790555050505050505050565b6040518060c001604052805f73ffffffffffffffffffffffffffffffffffffffff1681526020015f73ffffffffffffffffffffffffffffffffffffffff1681526020015f81526020015f81526020015f60068111156107f8576107f761092f565b5b81526020015f60ff1681525090565b5f73ffffffffffffffffffffffffffffffffffffffff82169050919050565b5f819050919050565b5f61084961084461083f84610807565b610826565b610807565b9050919050565b5f61085a8261082f565b9050919050565b5f61086b82610850565b9050919050565b61087b81610861565b82525050565b5f6020820190506108945f830184610872565b92915050565b5f5ffd5b5f5ffd5b5f819050919050565b6108b4816108a2565b81146108be575f5ffd5b50565b5f813590506108cf816108ab565b92915050565b5f602082840312156108ea576108e961089a565b5b5f6108f7848285016108c1565b91505092915050565b5f61090a82610807565b9050919050565b61091a81610900565b82525050565b610929816108a2565b82525050565b7f4e487b71000000000000000000000000000000000000000000000000000000005f52602160045260245ffd5b6007811061096d5761096c61092f565b5b50565b5f81905061097d8261095c565b919050565b5f61098c82610970565b9050919050565b61099c81610982565b82525050565b5f60ff82169050919050565b6109b7816109a2565b82525050565b60c082015f8201516109d15f850182610911565b5060208201516109e46020850182610911565b5060408201516109f76040850182610920565b506060820151610a0a6060850182610920565b506080820151610a1d6080850182610993565b5060a0820151610a3060a08501826109ae565b50505050565b5f60c082019050610a495f8301846109bd565b92915050565b610a58816108a2565b82525050565b5f602082019050610a715f830184610a4f565b92915050565b5f5ffd5b5f5ffd5b5f5ffd5b5f5f83601f840112610a9857610a97610a77565b5b8235905067ffffffffffffffff811115610ab557610ab4610a7b565b5b602083019150836001820283011115610ad157610ad0610a7f565b5b9250929050565b5f5f83601f840112610aed57610aec610a77565b5b8235905067ffffffffffffffff811115610b0a57610b09610a7b565b5b602083019150836020820283011115610b2657610b25610a7f565b5b9250929050565b5f5f5f5f5f60608688031215610b4657610b4561089a565b5b5f610b53888289016108c1565b955050602086013567ffffffffffffffff811115610b7457610b7361089e565b5b610b8088828901610a83565b9450945050604086013567ffffffffffffffff811115610ba357610ba261089e565b5b610baf88828901610ad8565b92509250509295509295909350565b5f82825260208201905092915050565b7f5461626c652066756c6c000000000000000000000000000000000000000000005f82015250565b5f610c02600a83610bbe565b9150610c0d82610bce565b602082019050919050565b5f6020820190508181035f830152610c2f81610bf6565b9050919050565b7f57726f6e6720627579496e0000000000000000000000000000000000000000005f82015250565b5f610c6a600b83610bbe565b9150610c7582610c36565b602082019050919050565b5f6020820190508181035f830152610c9781610c5e565b9050919050565b7f4e487b71000000000000000000000000000000000000000000000000000000005f52601160045260245ffd5b5f610cd5826108a2565b9150610ce0836108a2565b9250828201905080821115610cf857610cf7610c9e565b5b92915050565b5f610d08826108a2565b91507fffffffffffffffffffffffffffffffffffffffffffffffffffffffffffffffff8203610d3a57610d39610c9e565b5b600182019050919050565b7f4e6f742073687566666c652070686173650000000000000000000000000000005f82015250565b5f610d79601183610bbe565b9150610d8482610d45565b602082019050919050565b5f6020820190508181035f830152610da681610d6d565b9050919050565b5f82825260208201905092915050565b828183375f83830152505050565b5f601f19601f8301169050919050565b5f610de68385610dad565b9350610df3838584610dbd565b610dfc83610dcb565b840190509392505050565b5f82825260208201905092915050565b5f5ffd5b82818337505050565b5f610e2f8385610e07565b93507f07ffffffffffffffffffffffffffffffffffffffffffffffffffffffffffffff831115610e6257610e61610e17565b5b602083029250610e73838584610e1b565b82840190509392505050565b5f6040820190508181035f830152610e98818688610ddb565b90508181036020830152610ead818486610e24565b905095945050505050565b5f8115159050919050565b610ecc81610eb8565b8114610ed6575f5ffd5b50565b5f81519050610ee781610ec3565b92915050565b5f60208284031215610f0257610f0161089a565b5b5f610f0f84828501610ed9565b91505092915050565b7f496e76616c69642073687566666c652070726f6f6600000000000000000000005f82015250565b5f610f4c601583610bbe565b9150610f5782610f18565b602082019050919050565b5f6020820190508181035f830152610f7981610f40565b905091905056fea264697066735822122047c3a8f6e0fe84956ebeb8d20791e41ed91b819978dc7cacf0236594ce98c6cf64736f6c63430008210033","linkReferences":{}},"methodIdentifiers":{"createTable(uint256)":"508aea8c","getTable(uint256)":"195e251f","joinTable(uint256)":"3823bb03","shuffleVerifier()":"0d2d20d9","submitShuffleProof(uint256,bytes,bytes32[])":"6f5fb743","tableCount()":"4155fc5b"},"id":2}